{
  "_format": "hh-sol-artifact-1",
  "contractName": "DisperseFlow",
  "sourceName": "contracts/DisperseFlow.sol",
  "abi": [
    {
      "inputs": [],
      "stateMutability": "nonpayable",
      "type": "constructor"
    },
    {
      "inputs": [],
      "name": "Unauthorized",
      "type": "error"
    },
    {
      "inputs": [
        {
          "internalType": "contract ISuperToken",
          "name": "_token",
          "type": "address"
        },
        {
          "internalType": "address[]",
          "name": "_recipients",
          "type": "address[]"
        },
        {
          "internalType": "int96[]",
          "name": "_flowRates",
          "type": "int96[]"
        }
      ],
      "name": "batchUpdateFlow",
      "outputs": [],
      "stateMutability": "nonpayable",
      "type": "function"
    },
    {
      "inputs": [
        {
          "internalType": "contract ISuperToken",
          "name": "_token",
          "type": "address"
        },
        {
          "internalType": "string[]",
          "name": "_recipients",
          "type": "string[]"
        },
        {
          "internalType": "int96[]",
          "name": "_flowRates",
          "type": "int96[]"
        }
      ],
      "name": "batchUpdateFlowbyAccount",
      "outputs": [],
      "stateMutability": "nonpayable",
      "type": "function"
    },
    {
      "inputs": [
        {
          "internalType": "address",
          "name": "_newOwner",
          "type": "address"
        }
      ],
      "name": "changeOwner",
      "outputs": [],
      "stateMutability": "nonpayable",
      "type": "function"
    },
    {
      "inputs": [
        {
          "internalType": "contract ISuperToken",
          "name": "_token",
          "type": "address"
        },
        {
          "internalType": "address[]",
          "name": "_recipients",
          "type": "address[]"
        },
        {
          "internalType": "int96[]",
          "name": "_flowRates",
          "type": "int96[]"
        }
      ],
      "name": "disperseToken",
      "outputs": [],
      "stateMutability": "nonpayable",
      "type": "function"
    },
    {
      "inputs": [
        {
          "internalType": "contract ISuperToken",
          "name": "_token",
          "type": "address"
        },
        {
          "internalType": "string[]",
          "name": "_recipients",
          "type": "string[]"
        },
        {
          "internalType": "int96[]",
          "name": "_flowRates",
          "type": "int96[]"
        }
      ],
      "name": "disperseTokenByAccount",
      "outputs": [],
      "stateMutability": "nonpayable",
      "type": "function"
    },
    {
      "inputs": [
        {
          "internalType": "string",
          "name": "_account",
          "type": "string"
        }
      ],
      "name": "register",
      "outputs": [],
      "stateMutability": "nonpayable",
      "type": "function"
    },
    {
      "inputs": [
        {
          "internalType": "contract ISuperToken",
          "name": "_token",
          "type": "address"
        },
        {
          "internalType": "address",
          "name": "_receiver",
          "type": "address"
        },
        {
          "internalType": "int96",
          "name": "_flowRate",
          "type": "int96"
        }
      ],
      "name": "updateFlow",
      "outputs": [],
      "stateMutability": "nonpayable",
      "type": "function"
    },
    {
      "inputs": [
        {
          "internalType": "contract ISuperToken",
          "name": "_token",
          "type": "address"
        },
        {
          "internalType": "string",
          "name": "_account",
          "type": "string"
        },
        {
          "internalType": "int96",
          "name": "_flowRate",
          "type": "int96"
        }
      ],
      "name": "updateFlowByAccount",
      "outputs": [],
      "stateMutability": "nonpayable",
      "type": "function"
    },
    {
      "inputs": [
        {
          "internalType": "contract ISuperToken",
          "name": "_token",
          "type": "address"
        }
      ],
      "name": "withdrawFunds",
      "outputs": [],
      "stateMutability": "nonpayable",
      "type": "function"
    },
    {
      "inputs": [
        {
          "internalType": "contract ISuperToken",
          "name": "_token",
          "type": "address"
        },
        {
          "internalType": "uint256",
          "name": "amount",
          "type": "uint256"
        }
      ],
      "name": "withdrawFunds",
      "outputs": [],
      "stateMutability": "nonpayable",
      "type": "function"
    }
  ],
  "bytecode": "0x608060405234801561001057600080fd5b50336000806101000a81548173ffffffffffffffffffffffffffffffffffffffff021916908373ffffffffffffffffffffffffffffffffffffffff16021790555061228e806100606000396000f3fe608060405234801561001057600080fd5b506004361061009e5760003560e01c8063b5cf4bb811610066578063b5cf4bb81461012f578063c10753291461014b578063d6df4fd114610167578063ec1f07a714610183578063f2c298be1461019f5761009e565b80632c0ac8fc146100a357806368742da6146100bf5780639c954a75146100db578063a04c8182146100f7578063a6f9dae114610113575b600080fd5b6100bd60048036038101906100b89190611415565b6101bb565b005b6100d960048036038101906100d49190611468565b61027a565b005b6100f560048036038101906100f091906116b1565b61039b565b005b610111600480360381019061010c91906118d2565b6104ae565b005b61012d6004803603810190610128919061195d565b61063a565b005b6101496004803603810190610144919061198a565b610702565b005b61016560048036038101906101609190611a2f565b6108ac565b005b610181600480360381019061017c91906116b1565b61094f565b005b61019d600480360381019061019891906118d2565b610a62565b005b6101b960048036038101906101b49190611a6f565b610bee565b005b60008054906101000a900473ffffffffffffffffffffffffffffffffffffffff1673ffffffffffffffffffffffffffffffffffffffff163373ffffffffffffffffffffffffffffffffffffffff1614610249576040517f08c379a000000000000000000000000000000000000000000000000000000000815260040161024090611b15565b60405180910390fd5b61027482828573ffffffffffffffffffffffffffffffffffffffff16610d3f9092919063ffffffff16565b50505050565b60008173ffffffffffffffffffffffffffffffffffffffff166370a08231306040518263ffffffff1660e01b81526004016102b59190611b44565b602060405180830381865afa1580156102d2573d6000803e3d6000fd5b505050506040513d601f19601f820116820180604052508101906102f69190611b74565b90508173ffffffffffffffffffffffffffffffffffffffff1663a9059cbb60008054906101000a900473ffffffffffffffffffffffffffffffffffffffff16836040518363ffffffff1660e01b8152600401610353929190611bb0565b6020604051808303816000875af1158015610372573d6000803e3d6000fd5b505050506040513d601f19601f820116820180604052508101906103969190611c11565b505050565b60008054906101000a900473ffffffffffffffffffffffffffffffffffffffff1673ffffffffffffffffffffffffffffffffffffffff163373ffffffffffffffffffffffffffffffffffffffff1614610429576040517f08c379a000000000000000000000000000000000000000000000000000000000815260040161042090611b15565b60405180910390fd5b60005b82518110156104a85761049483828151811061044b5761044a611c3e565b5b602002602001015183838151811061046657610465611c3e565b5b60200260200101518673ffffffffffffffffffffffffffffffffffffffff16610d3f9092919063ffffffff16565b5080806104a090611c9c565b91505061042c565b50505050565b60008054906101000a900473ffffffffffffffffffffffffffffffffffffffff1673ffffffffffffffffffffffffffffffffffffffff163373ffffffffffffffffffffffffffffffffffffffff161461053c576040517f08c379a000000000000000000000000000000000000000000000000000000000815260040161053390611b15565b60405180910390fd5b60005b8251811015610634576000600184838151811061055f5761055e611c3e565b5b60200260200101516040516105749190611d55565b908152602001604051809103902060009054906101000a900473ffffffffffffffffffffffffffffffffffffffff1690508073ffffffffffffffffffffffffffffffffffffffff16600073ffffffffffffffffffffffffffffffffffffffff16146106205761061e818484815181106105f0576105ef611c3e565b5b60200260200101518773ffffffffffffffffffffffffffffffffffffffff16610d3f9092919063ffffffff16565b505b50808061062c90611c9c565b91505061053f565b50505050565b60008054906101000a900473ffffffffffffffffffffffffffffffffffffffff1673ffffffffffffffffffffffffffffffffffffffff163373ffffffffffffffffffffffffffffffffffffffff16146106bf576040517f82b4290000000000000000000000000000000000000000000000000000000000815260040160405180910390fd5b806000806101000a81548173ffffffffffffffffffffffffffffffffffffffff021916908373ffffffffffffffffffffffffffffffffffffffff16021790555050565b60008054906101000a900473ffffffffffffffffffffffffffffffffffffffff1673ffffffffffffffffffffffffffffffffffffffff163373ffffffffffffffffffffffffffffffffffffffff1614610790576040517f08c379a000000000000000000000000000000000000000000000000000000000815260040161078790611b15565b60405180910390fd5b600073ffffffffffffffffffffffffffffffffffffffff166001836040516107b89190611d55565b908152602001604051809103902060009054906101000a900473ffffffffffffffffffffffffffffffffffffffff1673ffffffffffffffffffffffffffffffffffffffff160361083d576040517f08c379a000000000000000000000000000000000000000000000000000000000815260040161083490611db8565b60405180910390fd5b6108a66001836040516108509190611d55565b908152602001604051809103902060009054906101000a900473ffffffffffffffffffffffffffffffffffffffff16828573ffffffffffffffffffffffffffffffffffffffff16610d3f9092919063ffffffff16565b50505050565b8173ffffffffffffffffffffffffffffffffffffffff1663a9059cbb60008054906101000a900473ffffffffffffffffffffffffffffffffffffffff16836040518363ffffffff1660e01b8152600401610907929190611bb0565b6020604051808303816000875af1158015610926573d6000803e3d6000fd5b505050506040513d601f19601f8201168201806040525081019061094a9190611c11565b505050565b60008054906101000a900473ffffffffffffffffffffffffffffffffffffffff1673ffffffffffffffffffffffffffffffffffffffff163373ffffffffffffffffffffffffffffffffffffffff16146109dd576040517f08c379a00000000000000000000000000000000000000000000000000000000081526004016109d490611b15565b60405180910390fd5b60005b8251811015610a5c57610a488382815181106109ff576109fe611c3e565b5b6020026020010151838381518110610a1a57610a19611c3e565b5b60200260200101518673ffffffffffffffffffffffffffffffffffffffff16610ef29092919063ffffffff16565b508080610a5490611c9c565b9150506109e0565b50505050565b60008054906101000a900473ffffffffffffffffffffffffffffffffffffffff1673ffffffffffffffffffffffffffffffffffffffff163373ffffffffffffffffffffffffffffffffffffffff1614610af0576040517f08c379a0000000000000000000000000000000000000000000000000000000008152600401610ae790611b15565b60405180910390fd5b60005b8251811015610be85760006001848381518110610b1357610b12611c3e565b5b6020026020010151604051610b289190611d55565b908152602001604051809103902060009054906101000a900473ffffffffffffffffffffffffffffffffffffffff1690508073ffffffffffffffffffffffffffffffffffffffff16600073ffffffffffffffffffffffffffffffffffffffff1614610bd457610bd281848481518110610ba457610ba3611c3e565b5b60200260200101518773ffffffffffffffffffffffffffffffffffffffff16610ef29092919063ffffffff16565b505b508080610be090611c9c565b915050610af3565b50505050565b6000815111610c32576040517f08c379a0000000000000000000000000000000000000000000000000000000008152600401610c2990611e24565b60405180910390fd5b600073ffffffffffffffffffffffffffffffffffffffff16600182604051610c5a9190611d55565b908152602001604051809103902060009054906101000a900473ffffffffffffffffffffffffffffffffffffffff1673ffffffffffffffffffffffffffffffffffffffff1614610cdf576040517f08c379a0000000000000000000000000000000000000000000000000000000008152600401610cd690611e90565b60405180910390fd5b33600182604051610cf09190611d55565b908152602001604051809103902060006101000a81548173ffffffffffffffffffffffffffffffffffffffff021916908373ffffffffffffffffffffffffffffffffffffffff16021790555050565b6000806000610d4d866110a5565b915091508173ffffffffffffffffffffffffffffffffffffffff166339255d5b828373ffffffffffffffffffffffffffffffffffffffff166350209a628a8a8a600067ffffffffffffffff811115610da857610da76114ab565b5b6040519080825280601f01601f191660200182016040528015610dda5781602001600182028036833780820191505090505b50604051602401610dee9493929190611f73565b604051602081830303815290604052915060e01b6020820180517bffffffffffffffffffffffffffffffffffffffffffffffffffffffff8381831617835250505050600067ffffffffffffffff811115610e4b57610e4a6114ab565b5b6040519080825280601f01601f191660200182016040528015610e7d5781602001600182028036833780820191505090505b506040518463ffffffff1660e01b8152600401610e9c93929190611fe0565b6000604051808303816000875af1158015610ebb573d6000803e3d6000fd5b505050506040513d6000823e3d601f19601f82011682018060405250810190610ee491906120c6565b506001925050509392505050565b6000806000610f00866110a5565b915091508173ffffffffffffffffffffffffffffffffffffffff166339255d5b828373ffffffffffffffffffffffffffffffffffffffff166362fc305e8a8a8a600067ffffffffffffffff811115610f5b57610f5a6114ab565b5b6040519080825280601f01601f191660200182016040528015610f8d5781602001600182028036833780820191505090505b50604051602401610fa19493929190611f73565b604051602081830303815290604052915060e01b6020820180517bffffffffffffffffffffffffffffffffffffffffffffffffffffffff8381831617835250505050600067ffffffffffffffff811115610ffe57610ffd6114ab565b5b6040519080825280601f01601f1916602001820160405280156110305781602001600182028036833780820191505090505b506040518463ffffffff1660e01b815260040161104f93929190611fe0565b6000604051808303816000875af115801561106e573d6000803e3d6000fd5b505050506040513d6000823e3d601f19601f8201168201806040525081019061109791906120c6565b506001925050509392505050565b6000807f65599bf746e17a00ea62e3610586992d88101b78eec3cf380706621fb97ea8375491507fb969d79d88acd02d04ed7ee7d43b949e7daf093d363abcfbbc43dfdfd1ce969a549050600073ffffffffffffffffffffffffffffffffffffffff168173ffffffffffffffffffffffffffffffffffffffff16036112ad57600073ffffffffffffffffffffffffffffffffffffffff168273ffffffffffffffffffffffffffffffffffffffff16036111ca578273ffffffffffffffffffffffffffffffffffffffff166320bc44256040518163ffffffff1660e01b8152600401602060405180830381865afa1580156111a3573d6000803e3d6000fd5b505050506040513d601f19601f820116820180604052508101906111c79190612124565b91505b8173ffffffffffffffffffffffffffffffffffffffff1663b6d200de7fa9214cc96615e0085d3bb077758db69497dc2dce3b2b1e97bc93c3d18d83efd36040518263ffffffff1660e01b815260040161122391906121a3565b602060405180830381865afa158015611240573d6000803e3d6000fd5b505050506040513d601f19601f8201168201806040525081019061126491906121fc565b9050817f65599bf746e17a00ea62e3610586992d88101b78eec3cf380706621fb97ea83755807fb969d79d88acd02d04ed7ee7d43b949e7daf093d363abcfbbc43dfdfd1ce969a555b600073ffffffffffffffffffffffffffffffffffffffff168273ffffffffffffffffffffffffffffffffffffffff16036112ea576112e9612229565b5b600073ffffffffffffffffffffffffffffffffffffffff168173ffffffffffffffffffffffffffffffffffffffff160361132757611326612229565b5b915091565b6000604051905090565b600080fd5b600080fd5b600073ffffffffffffffffffffffffffffffffffffffff82169050919050565b600061136b82611340565b9050919050565b600061137d82611360565b9050919050565b61138d81611372565b811461139857600080fd5b50565b6000813590506113aa81611384565b92915050565b6113b981611360565b81146113c457600080fd5b50565b6000813590506113d6816113b0565b92915050565b600081600b0b9050919050565b6113f2816113dc565b81146113fd57600080fd5b50565b60008135905061140f816113e9565b92915050565b60008060006060848603121561142e5761142d611336565b5b600061143c8682870161139b565b935050602061144d868287016113c7565b925050604061145e86828701611400565b9150509250925092565b60006020828403121561147e5761147d611336565b5b600061148c8482850161139b565b91505092915050565b600080fd5b6000601f19601f8301169050919050565b7f4e487b7100000000000000000000000000000000000000000000000000000000600052604160045260246000fd5b6114e38261149a565b810181811067ffffffffffffffff82111715611502576115016114ab565b5b80604052505050565b600061151561132c565b905061152182826114da565b919050565b600067ffffffffffffffff821115611541576115406114ab565b5b602082029050602081019050919050565b600080fd5b600061156a61156584611526565b61150b565b9050808382526020820190506020840283018581111561158d5761158c611552565b5b835b818110156115b657806115a288826113c7565b84526020840193505060208101905061158f565b5050509392505050565b600082601f8301126115d5576115d4611495565b5b81356115e5848260208601611557565b91505092915050565b600067ffffffffffffffff821115611609576116086114ab565b5b602082029050602081019050919050565b600061162d611628846115ee565b61150b565b905080838252602082019050602084028301858111156116505761164f611552565b5b835b8181101561167957806116658882611400565b845260208401935050602081019050611652565b5050509392505050565b600082601f83011261169857611697611495565b5b81356116a884826020860161161a565b91505092915050565b6000806000606084860312156116ca576116c9611336565b5b60006116d88682870161139b565b935050602084013567ffffffffffffffff8111156116f9576116f861133b565b5b611705868287016115c0565b925050604084013567ffffffffffffffff8111156117265761172561133b565b5b61173286828701611683565b9150509250925092565b600067ffffffffffffffff821115611757576117566114ab565b5b602082029050602081019050919050565b600080fd5b600067ffffffffffffffff821115611788576117876114ab565b5b6117918261149a565b9050602081019050919050565b82818337600083830152505050565b60006117c06117bb8461176d565b61150b565b9050828152602081018484840111156117dc576117db611768565b5b6117e784828561179e565b509392505050565b600082601f83011261180457611803611495565b5b81356118148482602086016117ad565b91505092915050565b600061183061182b8461173c565b61150b565b9050808382526020820190506020840283018581111561185357611852611552565b5b835b8181101561189a57803567ffffffffffffffff81111561187857611877611495565b5b80860161188589826117ef565b85526020850194505050602081019050611855565b5050509392505050565b600082601f8301126118b9576118b8611495565b5b81356118c984826020860161181d565b91505092915050565b6000806000606084860312156118eb576118ea611336565b5b60006118f98682870161139b565b935050602084013567ffffffffffffffff81111561191a5761191961133b565b5b611926868287016118a4565b925050604084013567ffffffffffffffff8111156119475761194661133b565b5b61195386828701611683565b9150509250925092565b60006020828403121561197357611972611336565b5b6000611981848285016113c7565b91505092915050565b6000806000606084860312156119a3576119a2611336565b5b60006119b18682870161139b565b935050602084013567ffffffffffffffff8111156119d2576119d161133b565b5b6119de868287016117ef565b92505060406119ef86828701611400565b9150509250925092565b6000819050919050565b611a0c816119f9565b8114611a1757600080fd5b50565b600081359050611a2981611a03565b92915050565b60008060408385031215611a4657611a45611336565b5b6000611a548582860161139b565b9250506020611a6585828601611a1a565b9150509250929050565b600060208284031215611a8557611a84611336565b5b600082013567ffffffffffffffff811115611aa357611aa261133b565b5b611aaf848285016117ef565b91505092915050565b600082825260208201905092915050565b7f6f6e6c79206f776e65722063616e20646f000000000000000000000000000000600082015250565b6000611aff601183611ab8565b9150611b0a82611ac9565b602082019050919050565b60006020820190508181036000830152611b2e81611af2565b9050919050565b611b3e81611360565b82525050565b6000602082019050611b596000830184611b35565b92915050565b600081519050611b6e81611a03565b92915050565b600060208284031215611b8a57611b89611336565b5b6000611b9884828501611b5f565b91505092915050565b611baa816119f9565b82525050565b6000604082019050611bc56000830185611b35565b611bd26020830184611ba1565b9392505050565b60008115159050919050565b611bee81611bd9565b8114611bf957600080fd5b50565b600081519050611c0b81611be5565b92915050565b600060208284031215611c2757611c26611336565b5b6000611c3584828501611bfc565b91505092915050565b7f4e487b7100000000000000000000000000000000000000000000000000000000600052603260045260246000fd5b7f4e487b7100000000000000000000000000000000000000000000000000000000600052601160045260246000fd5b6000611ca7826119f9565b91507fffffffffffffffffffffffffffffffffffffffffffffffffffffffffffffffff8203611cd957611cd8611c6d565b5b600182019050919050565b600081519050919050565b600081905092915050565b60005b83811015611d18578082015181840152602081019050611cfd565b60008484015250505050565b6000611d2f82611ce4565b611d398185611cef565b9350611d49818560208601611cfa565b80840191505092915050565b6000611d618284611d24565b915081905092915050565b7f6163636f756e7420646f65732773206578697374730000000000000000000000600082015250565b6000611da2601583611ab8565b9150611dad82611d6c565b602082019050919050565b60006020820190508181036000830152611dd181611d95565b9050919050565b7f6163636f756e74206973206e756c6c0000000000000000000000000000000000600082015250565b6000611e0e600f83611ab8565b9150611e1982611dd8565b602082019050919050565b60006020820190508181036000830152611e3d81611e01565b9050919050565b7f6163636f756e7420616c72656164792065786973747300000000000000000000600082015250565b6000611e7a601683611ab8565b9150611e8582611e44565b602082019050919050565b60006020820190508181036000830152611ea981611e6d565b9050919050565b6000819050919050565b6000611ed5611ed0611ecb84611340565b611eb0565b611340565b9050919050565b6000611ee782611eba565b9050919050565b6000611ef982611edc565b9050919050565b611f0981611eee565b82525050565b611f18816113dc565b82525050565b600081519050919050565b600082825260208201905092915050565b6000611f4582611f1e565b611f4f8185611f29565b9350611f5f818560208601611cfa565b611f688161149a565b840191505092915050565b6000608082019050611f886000830187611f00565b611f956020830186611b35565b611fa26040830185611f0f565b8181036060830152611fb48184611f3a565b905095945050505050565b6000611fca82611edc565b9050919050565b611fda81611fbf565b82525050565b6000606082019050611ff56000830186611fd1565b81810360208301526120078185611f3a565b9050818103604083015261201b8184611f3a565b9050949350505050565b600067ffffffffffffffff8211156120405761203f6114ab565b5b6120498261149a565b9050602081019050919050565b600061206961206484612025565b61150b565b90508281526020810184848401111561208557612084611768565b5b612090848285611cfa565b509392505050565b600082601f8301126120ad576120ac611495565b5b81516120bd848260208601612056565b91505092915050565b6000602082840312156120dc576120db611336565b5b600082015167ffffffffffffffff8111156120fa576120f961133b565b5b61210684828501612098565b91505092915050565b60008151905061211e816113b0565b92915050565b60006020828403121561213a57612139611336565b5b60006121488482850161210f565b91505092915050565b6000819050919050565b6000819050919050565b60008160001b9050919050565b600061218d61218861218384612151565b612165565b61215b565b9050919050565b61219d81612172565b82525050565b60006020820190506121b86000830184612194565b92915050565b60006121c982611360565b9050919050565b6121d9816121be565b81146121e457600080fd5b50565b6000815190506121f6816121d0565b92915050565b60006020828403121561221257612211611336565b5b6000612220848285016121e7565b91505092915050565b7f4e487b7100000000000000000000000000000000000000000000000000000000600052600160045260246000fdfea26469706673582212202aba0a1addb3543b2e0c02d440be166b5bd171e382b045296c53e5f8ed862a8564736f6c63430008120033",
  "linkReferences": {},
  "deployedLinkReferences": {}
}